:1000000000800020BD010000B11900007D19000032
:100010007D1900007D1900007D1900007D19000088
:100020007D1900007D1900007D190000B119000044
:10003000B11900007D190000B11900006D19000010
:10004000B1190000B1190000B1190000B119000088
:10005000B1190000B1190000B1190000B119000078
:10006000B1190000B1190000B1190000B119000068
:10007000B1190000B1190000B1190000B119000058
:10008000B1190000B1190000B1190000B119000048
:10009000B1190000B1190000B1190000B119000038
:1000A000E5420000F1420000B1190000B119000062
:1000B000B1190000B1190000B1190000B119000018
:1000C000B1190000B1190000B1190000B119000008
:1000D000B1190000B1190000B1190000B1190000F8
:1000E000B1190000B1190000B1190000B1190000E8
:1000F000B119000005260000B1190000C575000007
:10010000B1190000C57A0000B1190000B119000052
:10011000B1190000B1190000B1190000B1190000B7
:10012000B1190000B1190000B1190000B1190000A7
:10013000B1190000B1190000B1190000B119000097
:10014000B1190000B1190000B1190000B119000087
:10015000D1110000E9110000011200001912000085
:10016000B1190000A1280000B1190000B119000068
:10017000B1190000B1190000B1190000B119000057
:10018000B1190000B1190000B1190000B119000047
:10019000B1190000B1190000B1190000B119000037
:1001A000B1190000B1190000B1190000B119000027
:1001B000B1190000B1190000B1190000564B4CF202
:1001C000205210B51A804DF628121A8000BF00BFC9
:1001D00001F0F2FB514B4FF010621A60504A9A60E6
:1001E000504ADA60A3F53043203B1A6812F480725B
:1001F00004D14D490A604FF4A8521A604B4B1A784B
:10020000110703D51A7842F008021A70484B2A22C7
:100210001A700023474A48499818884204D247492F
:10022000595899500433F5E7454A464B9A424FF0E6
:10023000000302D242F8043BF7E74349434A5958C6
:1002400099500433B3F5DE7FF7D1414B802103F899
:10025000011B40498B42F9D13F4B1A603F4B8A2228
:100260001A70A3F5805324225A70A0221A709A792A
:100270009207FCD59A79D406FCD4394B9A7902F0CE
:100280000C02082AF9D103221A7140225A719A7974
:100290009006FCD5324B9A795106FBD5314A32494A
:1002A00011600221516020221A702D4B9B7903F0BE
:1002B0000C030C2BF9D12D4B2D4A1A602D4B2E4AD5
:1002C0001A6000225A60072243F8042C2B4AC3F814
:1002D0000C2D62B601F08AFE134B1B68DA0705D5B8
:1002E000274801F0D3FD274B274A1A60274B1B787C
:1002F0005B0609D5234C244A2368934204D1204845
:1003000001F0C4FD0023236009F050F801F05AFB0E
:1003100000F08CFEFEE700BF0E2005403080044058
:10032000823F04000100002B14D0034002D007409C
:1003300000E007406087FF1FA08DFF1F60CD000019
:10034000A08DFF1FCC95FF1F000000000082FF1F43
:1003500000E400E05FE400E008ED00E0005006404B
:100360000040064044800440000003010480044033
:10037000C010050014E000E0FF760100000020201E
:10038000A268FF571CE00340A5C3945A00F0074041
:10039000FFFFFFFFFFFFFFFFFFFFFFFFFFFFFFFF6D
:1003A000FFFFFFFFFFFFFFFFFFFFFFFFFFFFFFFF5D
:1003B000FFFFFFFFFFFFFFFFFFFFFFFFFFFFFFFF4D
:1003C000FFFFFFFFFFFFFFFFFFFFFFFFFFFFFFFF3D
:1003D000FFFFFFFFFFFFFFFFFFFFFFFFFFFFFFFF2D
:1003E000FFFFFFFFFFFFFFFFFFFFFFFFFFFFFFFF1D
:1003F000FFFFFFFFFFFFFFFFFFFFFFFFFFFFFFFF0D
:10040000FFFFFFFFFFFFFFFFFFFFFFFFDEF9FFFF23
:1004100010B5054C237833B9044B13B10448AFF33E
:1004200000800123237010BDA08DFF1F000000007D
:1004300060CD000008B5064B1BB106480649AFF376
:1004400000800648036813B1054B03B1984708BD07
:100450000000000060CD0000A48DFF1FA08DFF1FD5
:100460000000000010B50446383000F089FF204637
:1004700010BD01F0DAB838B5044608460D4609F05B
:1004800092F8236802465B6820462946984738BDA3
:1004900008B503681B68984708BD08B5FFF7EBFF70
:1004A00008BD08B5FFF7E7FF08BD38B50446FFF7FC
:1004B000E2FF0546204600F06DFF284438BD38B500
:1004C0000446FFF7D8FF0546204600F063FF2844A6
:1004D00038BD13B50B460021427B0091016903F042
:1004E00047FC02B010BDFFFF38B52749274D044631
:1004F00001F05AF8264B186808F0DEFE0146204647
:1005000001F0A1F820462349FFF7B3FF224B204614
:10051000196801F098F820462049FFF7AAFF204B00
:100520002046196801F0A1F820461E49FFF7A1FFF7
:100530001D4B2046196801F098F820461B49FFF72B
:1005400098FF6968204601F090F820461849FFF7A7
:1005500090FFA968204601F088F820461549FFF76A
:1005600088FF2968204601F080F820461249FFF7ED
:1005700080FF124B2046197801F065F8204610499B
:10058000FFF777FF204638BD74C000004C8FFF1F77
:10059000308FFF1F83C000003C8FFF1F8EC0000004
:1005A000BC8DFF1F96C00000388FFF1F9EC000004B
:1005B000A5C00000ACC00000B3C00000C08DFF1F8C
:1005C000BBC0000013B50D490D48FFF76AFF0D4988
:1005D0000B48FFF762FF002300930B4809490B4AC1
:1005E000032304F0C9F9044605480CB9084900E0A2
:1005F0000849FFF75AFF204602B010BDD3C00000E3
:10060000A491FF1FEEC00000D88EFF1FFCC00000A9
:1006100005C100000FC1000007B50B48694604F092
:100620001BF920B909490A48FFF749FF08E00949C1
:100630000748FFF736FF04486946062204F0B4F87D
:1006400003B05DF804FB00BFD88EFF1F1BC1000084
:10065000A491FF1F3DC1000070B5364836498AB0ED
:10066000FFF71BFF354B1A680892089D1E46344859
:1006700004F0F0F9044650B933680993314B099AF4
:100680001B682B449A42F2D32A482F494DE02F4948
:100690002848FFF70AFF06AB009307AB01932848F1
:1006A00003A904AA05AB04F0E5F8044621481CB9E7
:1006B0002749FFF704FF3AE02649FFF7F2FE2048FA
:1006C000039904F0A3F824491A48FFF7EEFE2349E2
:1006D0001848FFF7E6FE1A48049904F097F81E49F7
:1006E0001448FFF7E2FE1E491248FFF7DAFE1448ED
:1006F000059904F08BF818490E48FFF7D6FE194902
:100700000C48FFF7CEFE0E48069904F07FF8124918
:100710000848FFF7CAFE14490648FFF7C2FE08481A
:10072000079904F073F803480B49FFF7BEFE204613
:100730000AB070BDA491FF1F4CC100002890FF1F9C
:10074000D88EFF1F6C87FF1F5BC1000011C1000026
:1007500062C1000085C100006AC200008FC10000B4
:1007600099C10000A3C10000ADC1000008B509484F
:100770000949FFF7A4FE0121102001F097FBC820D2
:1007800001F01EFC1020002101F090FBC82001F0B8
:1007900017FCF0E7A491FF1FB7C1000013B5064B8B
:1007A0001A680092009C1A680192019902199142FC
:1007B000F9D902B010BD00BF2890FF1F70B5092005
:1007C00088B0012101F072FB0024142001F06CF8C4
:1007D00003AD28510A200434FFF7E0FF142CF4D1B4
:1007E00000240026285908F0C3FB0146304608F0D3
:1007F0000BFB0434142C0646F4D1204908F0C0FC4D
:1008000001461F4808F0BCFC1E4908F005FC1C49C5
:1008100008F0F8FA1C4908F0B3FC07F091FF07F064
:100820008DFB08F09BFA194908F0AAFC184908F05A
:10083000EBFA01464FF07E5008F0A2FC154908F093
:10084000E1FA154904461548FFF727FE204607F050
:1008500077FF0B46022102460091104800F0E4FDAC
:100860000F490E48FFF721FE0E4B092000211C60A6
:1008700008B0BDE8704001F019BB00BF0000A04007
:1008800000401C4600C07F440080094600E07645D9
:100890000FCF5B3B33938843C6C10000A491FF1F79
:1008A000D3C10000308FFF1F1049114808B5FFF772
:1008B000F4FD0F480F49FFF7F4FD0F4A0F48116888
:1008C00061B90A4904F0A8F818B909480C49FFF7BA
:1008D000F6FD4FF47A70FFF761FFEEE703F096FF45
:1008E00008490348FFF7E1FD012008BDD7C100001A
:1008F000A491FF1F06C20000D48EFF1FD88EFF1FD9
:100900000BC200006AC2000037B5144B144A1A60CB
:1009100000245C6004230093124D134B01930A21C1
:1009200005230222114803F0A9FE2846104901229E
:1009300005F092FC28460F4D0F49104A07F0F8FACF
:10094000284604F09DF800950D490E4840F25B7270
:10095000234605F0D9FE03B030BD00BF1C8EFF1F3B
:1009600010C50000DC8EFF1FA491FF1FD88EFF1F53
:10097000688FFF1FC88DFF1F650400006087FF1F81
:10098000D7C10000248EFF1F73B5124CC5B20E46AE
:100990002046294602F084FF3146204602F074FCCE
:1009A00000212046FFF795FD012300220192617B83
:1009B000009320692A4603F0F0F92069D0F8382125
:1009C000D0F834319A42F9D003F0FFF9C0B202B046
:1009D00070BD00BFDC91FF1F10B51D201021FFF777
:1009E000D3FFC0F341000228104C0ED0032812D0D0
:1009F00001280F4804D00F49FFF74FFD01230FE0F6
:100A00000D49FFF74AFD02230AE009480B49FFF7A9
:100A100044FD032304E006480949FFF73EFD042393
:100A200023600348BDE8104000F0B4BC3C8FFF1FBA
:100A3000A491FF1F1DC200002AC2000037C200009F
:100A400044C200002DE9F341164CC5B28846204649
:100A5000294616461F4602F023FF4146204602F073
:100A600013FC00212046FFF734FD012200238DE80E
:100A70000C00617B20692A46334603F08EF9226917
:100A8000D2F83811D2F834319942F9D00025B54264
:100A900005DA206903F099F978550135F7E702B0D6
:100AA000BDE8F081DC91FF1F13B506226B460446BA
:100AB00001211D20FFF7C6FF002300A919441DF8DE
:100AC000030049785A1041EA002102330911062B2C
:100AD00044F82210F1D102B010BDFFFFF0B50320A1
:100AE000BBB001F003FA012840F0CE800C211D209C
:100AF000FFF74AFF654C222120701D20FFF744FFBD
:100B000063496448FFF7D1FC634A64491368029360
:100B1000634B0D6819680298294488422646C0F044
:100B2000B08012680392039A1A605E4B5E4D19689A
:100B3000D1F1010138BF00211020196001F0B6F990
:100B4000594805F05FFD10B1284605F063FD95F8A2
:100B50003230554C554F564D33B1204605F0ACFB65
:100B6000236A3B60636A02E0524B3B60524B2B604E
:100B7000FFF724FE6420FFF711FE5048FFF794FFB3
:100B800000244E4B4E4DE05808F0F2F94FF06A51F8
:100B900008F042FA4B4BE15808F034F9285104347C
:100BA0000C2CEED10024484B3A48195DFFF770FC3D
:100BB00046493848FFF771FC55F8240007F0C0FD9E
:100BC0000B46042102460091324800F02DFC01340E
:100BD00030483F49FFF761FC032CE4D12D4800F079
:100BE000D9FB32783B4B02F0080202F0FF0112B150
:100BF00001221A7000E01970FFF7EEFE2548364911
:100C0000FFF753FC354805F0AAFE68B9344921487E
:100C1000FFF743FC33491F48FFF747FC2F48314992
:100C2000314A324B05F07CFF2C4805F098FE40B36A
:100C300004A8FFF759FC002304A808A9C82200F063
:100C400028FD08AA2A49254805F0ABFF2949044692
:100C50001048FFF722FC08A90E48FFF726FC26499A
:100C60000C48FFF71AFC0B482149FFF71EFC094806
:100C70000CB1224900E02249FFF717FC04A800F05C
:100C800053FC6420FFF78AFD3BB0F0BD648FFF1F6B
:100C900050C20000A491FF1F2890FF1F6887FF1F0C
:100CA000348FFF1FC48DFF1FDC8EFF1FBC8DFF1F05
:100CB000388FFF1F351E1C427A459AC2588FFF1F7E
:100CC0004C8FFF1F408FFF1F6487FF1F65C200000E
:100CD00068C20000C08DFF1F6BC20000248EFF1F82
:100CE00073C200008AC20000B3C20000C2C200008A
:100CF000D5C20000EFC20000EAC0000002C300003D
:100D000000C3000070B50A4C0D46C1B2204616461D
:100D100002F0C6FD2946204602F0B6FA31462046CA
:100D200002F0B2FA20460021FFF7D3FB70BD00BFEE
:100D3000DC91FF1F08B52A211D20FFF725FE2A217F
:100D400000F0FE02BDE808401D20FFF7DBBF08B53C
:100D50002A211D20FFF718FE40F001022A211D2044
:100D6000D2B2BDE80840FFF7CDBFFFFF38B504465B
:100D70000D46FFF7DFFF022C03D0042C01D0082C16
:100D800003D11D200E21A20802E01D200E21002209
:100D9000FFF7B8FF2A211D20FFF7F6FD2A2100F0FA
:100DA000C7021D20FFF7AEFF072D0AD82A211D20FC
:100DB000FFF7EAFD40EAC5022A211D20D2B2FFF763
:100DC000A1FF1D2011214022FFF79CFF1D201321B0
:100DD0004422FFF797FF1D2014218422FFF792FF82
:100DE0001D4C1D2012215022FFF78CFF1D202121B8
:100DF0005522FFF787FF22781D202321FFF782FF6E
:100E000022781D202421FFF77DFF22781D20252137
:100E1000FFF778FF1D2026213022FFF773FF1D20EA
:100E20002721C822FFF76EFF1D202821FF22FFF790
:100E300069FF1D202C210222FFF764FF1D202D21B8
:100E40001922FFF75FFF1D202E210122FFF75AFF15
:100E5000BDE83840FFF77BBF7087FF1FF0B54FF448
:100E6000165187B05C4805F01FFC5C4B5E7B1F6928
:100E7000304602F07BFA01250024594B01902246AE
:100E8000314603930495234638460094029402F0B9
:100E9000E5FB4FF47A7001F093F852494E4805F0A3
:100EA0002DFC204600F0DCFC2946092001F02CF83E
:100EB0002946102001F028F82946112001F024F8D5
:100EC0002946112000F0F2FF0320214601F01CF812
:100ED0002946032000F0EAFF0420214601F014F81F
:100EE0002946032000F0E2FF3F4800F053FA3F4953
:100EF0003D48FFF7E4FA3E493B48FFF7E0FA3D4939
:100F00003948FFF7DCFA3C493748FFF7D8FA374948
:100F10003548FFF7D4FA39493348FFF7BEFA1D20A8
:100F20000D21FFF731FD2A28054611D102200321AA
:100F3000FFF71CFF32492C48FFF7B7FA314821462A
:100F40002246234603F0BEFB80B927482E4918E00D
:100F50002E492548FFF7A1FA2946102223462248A8
:100F600000F028FA204800F015FA0CE028491E4845
:100F7000FFF79BFAFFF750FBFFF724FB28B91A484D
:100F80002449FFF79CFAFFF7F1FBFFF765FB10B967
:100F900015482149F5E7FFF787FC10B912481F49AA
:100FA000EFE711481E49FFF780FA1E48FFF77CFD66
:100FB0001C4BE05807F0DCFF4FF06A5108F02CF8AA
:100FC000194B185104340C2CF2D11120002107B018
:100FD000BDE8F04000F06ABFDC8EFF1FDC91FF1F10
:100FE000A086010014C30000A491FF1F46C30000A7
:100FF00062C300007EC3000093C30000B5C30000BD
:1010000011C10000D88EFF1FECC30000D6C3000042
:1010100020C4000033C4000059C400007CC4000098
:101020009EC40000588FFF1F408FFF1F08B5FFF7B9
:1010300015FFFFF753FD02F0FFF8FAE701B5EAB13B
:10104000102A17DB00F0070333B1C3F10803D21AEB
:10105000013B00F8011BFBDCC9B241EA012141EA76
:1010600001418C46D308013BE0E8021CFBDC12F096
:10107000070203D0013A00F8011BFBDC01BD00BFF1
:1010800008B50368C9B21B68984708BD08B503686E
:10109000C9B21B68984708BD08B50368C9B21B6888
:1010A000984708BD08B50368C9B21B68984708BDD2
:1010B0004B0803F1376000F5D830B0FBF1F000F0D9
:1010C000E5BF10B54B0803F1376000F5D830144682
:1010D000B0FBF1F000F0DAFF2046BDE8104001F06F
:1010E00039B801F061B8084601F092B8084601F03D
:1010F000E1B80846114601F0A7B808B5084601F066
:10110000FFF8003018BF012008BD08B5084601F0FF
:1011100019F9003018BF012008BD01F0FDB901F038
:1011200035BA01F009BA01F0DBB901F047BA01F0B4
:10113000E1B908B5084601F02BF9012008BD08B552
:10114000084601F025F9012008BD10B508461446EF
:10115000114601F067F9204610BD38B508460D4626
:1011600008F021FA04462146284601F05BF92046A2
:1011700038BD7047044B00221A714FF47A711A730C
:10118000024A99601A607047688FFF1FB0C4000060
:1011900070B506460D4600243319284619790A22EF
:1011A0000023013400F006F9042C05D02B682846F2
:1011B0001B682E219847EFE7204670BD024B034A7B
:1011C0001A6000225A607047788FFF1F10C5000018
:1011D00008B5034B01221A60024B1B68984708BDF3
:1011E0000C710340888FFF1F08B5034B01221A6062
:1011F000024B5B68984708BD1C710340888FFF1F36
:1012000008B5034B01221A60024B9B68984708BD42
:101210002C710340888FFF1F08B5034B01221A6011
:10122000024BDB68984708BD3C710340888FFF1F65
:10123000054B1A6842F400021A60044B00221A603F
:10124000034B01221A7070473C8004400070034039
:10125000848FFF1F064B01221A6003F588333C334D
:101260001A6822F400021A60024B00221A707047BA
:1012700000700340848FFF1FF0B54578134C144F66
:101280002B011A194260134A9E188660066947F8B6
:10129000256000259D501951032199504378427BC8
:1012A0004433DBB2037303F1604303F5644301216C
:1012B0001A70027B53119B0003F1604303F56143F5
:1012C00002F01F0201FA02F21A60F0BD0071034041
:1012D000888FFF1F08710340F8B50C4B1B7806463A
:1012E0000F460BB9FFF7A4FF0024094D625DE3B27E
:1012F0003AB9304673703946FFF7BEFF01202855D2
:10130000F8BD0134042CF0D10020F8BD848FFF1FFC
:10131000808FFF1F8268002310B51360027B0121BC
:10132000541102F01F0201FA02F2084941F8242088
:10133000074A41785354D15C31B90133042BFAD1B7
:10134000BDE81040FFF786BF10BD00BF80E100E0A0
:10135000808FFF1F037870B504460D4616461BB1FB
:10136000FFF7D8FF00232370256120463146FFF7A1
:10137000B3FF10B10123237000E02070207870BD0E
:10138000037810B504460BB1FFF7C4FF00232370A8
:1013900010BDFFFF07B5064B1B88ADF8043003688E
:1013A00001A95B680222984703B05DF804FB00BF07
:1013B00018C5000070B505468AB022B90368C9B2E5
:1013C0001B6898472CE0012A08BF0A2221B9302265
:1013D0008DF82520212413E02124B1FBF2F002FB3B
:1013E0001011C9B209290AAE94BF303137312644F1
:1013F000C9B206F8241C014610B1013CE4B2ECE786
:1014000033B1013CE4B20AAB23442D2203F8242C6F
:101410002B6801A95B6828462144C4F12202984741
:101420000AB070BDFFFFFFFF2DE9FF47804614465D
:101430001D4610461946002200239DF8309007F003
:1014400045FC20B105F100473D46012600E0064677
:10145000334B00270022F9B249450AD210461946FB
:101460002DA3D3E9002307F0BFF9013702460B464D
:10147000F1E72046294607F005F80D46044607F037
:101480004DFC07463346404639460A22FFF792FF95
:101490000646B9F1000F3BD0384607F02FF9B9F1F5
:1014A0000F0F28BF4FF00F090B4602462946204672
:1014B00006F0E6FF09F101092E238DF800305FFAEE
:1014C00089F94FF0010A0022164B07F08DF90D46FD
:1014D000044607F023FC04AB5344C0B200F13002D1
:1014E00003F8102C07F01AF90AF1010702460B461F
:1014F000FFB22046294606F0C3FF4F4501D0BA4649
:10150000E1E7D8F8003040465B6869464A469847AC
:10151000304604B0BDE8F087000000A09999B93FBB
:101520000000E03F0000244010B50446006807F0CA
:101530006BFF204610BD38B504460D4600680131EA
:1015400008F002F810B184E82100012038BD43689A
:101550008B4210B5044606D2FFF7EDFF20B1A36819
:101560000BB922681370012010BDF8B504460F4670
:10157000154622B9036803B11A7000230BE0114627
:10158000FFF7E5FF064640B9206810B107F03CFFC1
:10159000266000236360A36004E0A56020683946EC
:1015A00007F0F9FF2046F8BD38B500230446036074
:1015B0004360836003730D4639B1084607F0F3FFBB
:1015C000294602462046FFF7D0FF204638BD2DE9C8
:1015D000F84303688668994204460D46904606D350
:1015E0009A19914203D2C3EB0109012700E00027B9
:1015F000B8F1000F16D0464420463146FFF7A7FF4A
:1016000080B1A068216847B108444246494405F0CA
:10161000E3FA236800229A5503E00844294607F0BC
:10162000BAFFA6602046BDE8F88338B505460C46EB
:1016300039B1084607F0B7FF214602462846FFF7B2
:10164000C6FF284638BD1FB504460A22084601A930
:1016500000F0FEF901A807F0A6FF01A90246204606
:10166000FFF7B5FF204604B010BD10B588B00446A2
:101670006B4602220846042100F0FAF9684607F09A
:1016800092FF694602462046FFF7A1FF204608B0B8
:1016900010BD38B50C469AB191B181688B4202D326
:1016A0000023237038BDC91A551E8D4228BF0D4630
:1016B00001682A461944204607F094FF0023635529
:1016C00038BDFFFFF0B5304B1B681B06FBD42F4B1A
:1016D0001B6813F08002F6D172B62D4B19780029E1
:1016E00050D02C4908684F688E68CD680C69384422
:1016F000143130440968284420440844C0F34E00A3
:10170000254940F400400860C86A0F6B4E6B8D6B32
:10171000CC6B3844403130440968284420440844A4
:10172000C0F34E001D4940F40040086001F108116B
:10173000143151F8140C51F8107C51F80C6C51F81C
:10174000085C51F8044C096838443044284420446B
:101750000844C0F34E00124940F400400860C86AD3
:101760000F6B4E6B8D6BCC6B384440313044096845
:10177000284420440844C0F34E000A4940F4004085
:1017800008601A7062B6F0BD24B0034024B00B406C
:10179000998FFF1F38B003402CB0034030B0034096
:1017A0002CB00B4030B00B4010B5204B20482149E5
:1017B00060221A70E1225A701F4B204A1C78204B7D
:1017C000082C01D1012402E00A2C03D13924046041
:1017D000132005E00C2C0CBF35243D24046012209E
:1017E000086014601860174B17491B78174A03B13B
:1017F00001230B601360164B164A1978164B01290A
:1018000001D880210BE0042901D8842107E00829B0
:1018100001D8852103E0102994BF8621872111601A
:1018200019600E4B01221A7010BD00BF0040074026
:1018300008B003400CB003407187FF1F08B00B4095
:101840000CB00B409C8FFF1F20B0034020B00B401A
:101850007287FF1F24B0034024B00B40998FFF1FF5
:101860000E4B1A7860B1BAB9012119700C4B1B7874
:1018700023B10C4B1A6003F500231A60FFF794BFE5
:1018800052B11870064B1B78002BF7D0054B18602F
:1018900003F500231860F1E7704700BF9C8FFF1F1E
:1018A000998FFF1F24B00340282838B547D8254B0F
:1018B0001C5CFF2C43D0244B1B780BB1FFF702FFBD
:1018C000210614D472B6214B214D1C6001232B70CC
:1018D00062B672B61D4B1B681A0601D51D4B1FE080
:1018E0002B78002BEFD062B601F0A6FCF1E772B6C0
:1018F000194B1A4D1A6814F0400F14BF22F0100251
:1019000042F010021A60164B04F03F021A600123E5
:101910002B7062B672B6124B1B681B0608D5114BB2
:10192000186800232B7062B60F4B1B78184138BD26
:101930002B78002BDCD062B601F07EFCEAE70020B9
:1019400038BD00BF1AC50000998FFF1F00B00340CB
:101950009B8FFF1F10B003400CB00B409A8FFF1FEE
:1019600000B00B4010B00B40988FFF1F024B1A685D
:1019700001321A60704700BF2890FF1F08B50B4C5A
:101980002368580301D500F08BFF2368590501D562
:1019900000F038FE23681A0501D505F013FE236810
:1019A000DB04ECD506F08EF8E9E700BF3480044094
:1019B00008B5FFF7E3FFFFFF014B10221A807047C5
:1019C000002005407047FFFF024A1368184410606A
:1019D000184670477487FF1FEFF313839BB9EFF32B
:1019E000108098B9EFF3058323B10F2B04D9084A6F
:1019F000985C01E04FF48070EFF311833BB18342B8
:101A000038BF184670474FF0FF3070471846704790
:101A1000F0E300E010B50023B0FBF2F402FB140089
:101A2000092894BF30303730C0B2C85420460CB1BA
:101A30000133F1E7CA18547022469A4206DA885CEC
:101A4000CC5C8C54C8540132013BF6E7084610BD0B
:101A5000031E10B50C4603DBBDE81040FFF7DABFEC
:101A60002D2001F8010B5842FFF7D4FF204610BD8E
:101A70002DE9F74F8B469246114698466A4601ABD0
:101A800007F081FC009E8146BAF1000F0BD156B9D8
:101A900090F800903A4B3B4A0125B9F1340F8CBFC6
:101AA0009146994608E0484607F07DFDB04205465C
:101AB000C8BF451C06B90135019A02B10135C5EB15
:101AC0000B04002C08EB050708DD2744434644447B
:101AD000A34204D0202103F8011BF9E7444612B1C8
:101AE0002D2323700134002E07D1BAF1000F1ED030
:101AF0002346302203F8022B27E018DABAF1000F50
:101B000015D02346302203F8022B2E2262700137B3
:101B100032469C1B002AC6F10001144404DA194421
:101B2000302088540132F4E7009200E01C46BC42A9
:101B30000FD2631C19F8012B2270BB4208D0009A07
:101B4000013A0092002AF1D1A31C2E226270EDE727
:101B50003C46BBF1000F0DDA5D446D42234662192D
:101B6000D21A002A03DD202203F8012BF7E7002D0B
:101B7000A8BF641900234046237003B0BDE8F08F6E
:101B800043C500005DC800001F4B10B51C681C60F9
:101B9000E00304D51D4B1A680AB11B689847A103DE
:101BA00004D51A4B5A680AB15B689847E20704D516
:101BB000164B1A6C0AB11B6C9847A30704D5134B3C
:101BC0005A6C0AB15B6C9847200704D50F4B9A6C8E
:101BD0000AB19B6C9847610704D50C4BDA6C0AB1CB
:101BE000DB6C9847220304D5084B5A6E0AB15B6E32
:101BF0009847630306D5054BD3F8802012B1D3F87C
:101C00008030984710BD00BFA0A00440A08FFF1FE8
:101C10002C4B10B51C681C60200704D52A4B5A6A4F
:101C20000AB15B6A9847E10604D5274B9A6A0AB164
:101C30009B6A9847620604D5234BDA6A0AB1DB6ACD
:101C40009847230604D5204B1A6B0AB11B6B9847A3
:101C5000A00604D51C4B5A6B0AB15B6B9847E10791
:101C600004D5194BDA6B0AB1DB6B9847A20704D590
:101C7000154B9A6D0AB19B6D9847630704D5124BBB
:101C8000DA6D0AB1DB6D9847A00504D50E4BDA6E0C
:101C90000AB1DB6E9847E10504D50B4B1A6F0AB108
:101CA0001B6F9847620504D5074B5A6F0AB15B6FEB
:101CB0009847230504D5044B9A6F0AB19B6F984748
:101CC00010BD00BFA0B00440A08FFF1F1E4B10B579
:101CD0001C681C60E00704D51C4B9A680AB19B681D
:101CE0009847210604D5194B5A690AB15B69984790
:101CF000E20604D5154B9A690AB19B6998476307B8
:101D000004D5124BDA690AB1DB699847200704D57C
:101D10000E4B1A6A0AB11B6A9847A10704D50B4BF0
:101D20009A6B0AB19B6B9847A20604D5074B1A6DB4
:101D30000AB11B6D9847630604D5044B5A6D0AB16E
:101D40005B6D984710BD00BFA0C00440A08FFF1F6F
:101D5000114B10B51C681C60E00404D50F4BDA6809
:101D60000AB1DB689847A10404D50C4B1A690AB183
:101D70001B699847A20604D5084B1A6E0AB11B6E60
:101D80009847E30606D5054BD3F8842012B1D3F863
:101D90008430984710BD00BFA0900440A08FFF1F63
:101DA000094B10B51C681C60A20704D5074B9A6E3E
:101DB0000AB19B6E9847E30704D5044BDA6F0AB16A
:101DC000DB6F984710BD00BFA0D00440A08FFF1F5D
:101DD000212830B531D8042A2FD8DFE802F00709CE
:101DE000050B03000B2306E00A2304E0082302E0AE
:101DF0000C2300E00923114A114D02EBC002546884
:101E0000104AC2F89C51104DC2F8A0510F4DC2F8B3
:101E1000A4510F4DC2F8A8510E4DC2F8AC5172B684
:101E200022680D4D22F47022226042F0807242EA54
:101E3000034345F82010236062B630BD48C500005A
:101E4000511D00000082FF1F891B0000111C0000B3
:101E5000CD1C0000A11D0000A08FFF1F094B03EB4C
:101E6000C0035A6872B6136823F0877323F4803373
:101E700043F080731360044B002243F8202062B6C5
:101E8000704700BF48C50000A08FFF1F044B0549E5
:101E900000221A600A60044A106010221A6070471B
:101EA00014D0034004D0034000D00340212810B5D3
:101EB00018D80D4A52F8303093F880423CB10122D4
:101EC00011B183F8802010BD83F8002110BD02EB12
:101ED000C00043681A6811B142F0030201E022F029
:101EE00002021A6010BD00BF48C50000212806D8B4
:101EF000044B53F8303093F80002C0B27047002012
:101F0000704700BF48C50000212810B537D81C4ACB
:101F100002EBC00301295B68144601D004290FD1EC
:101F200054F83020012082F880024FF4A2721A6027
:101F30001A6804290CBF42F0200222F020021DE0A2
:101F400052F83020002082F8800211B18A1E012A46
:101F500012D84FF4807202291A6003D11A6842F035
:101F600003020BE003290AD11A6842F002021A6048
:101F70001A6822F0010201E040F203121A6010BD5B
:101F800048C5000072B60B4B0B491A680B4B1B6817
:101F9000096862B6490102D5322A88BF0133C2F509
:101FA000BB326021FF32B2FBF1F24FF47A7000FBDA
:101FB0000320704718E000E004ED00E02890FF1FC8
:101FC00038B50446FFF7DEFF054624B938BD013CAD
:101FD0000AD005F57A75FFF7D5FF401BB0F57A7F7B
:101FE000F5D201F029F9F6E738BDFFFF204B4FF499
:101FF000000210B51A604FF080721A604FF0007244
:102000001A604FF080621A604FF000621A60194B3C
:10201000194A1A4C00204BF6FF71186059602823AA
:10202000136093601361936113629362136393630C
:102030000922226004F58054043420606160A360AA
:10204000236144F8042C04F5FE2420600C48016050
:102050000C490B608B600C4B1A60FFF7A5FB4FF42B
:10206000C870FFF7ADFFBDE8104000F017BF00BF1C
:1020700008E100E0048003400C800340008003403E
:1020800008800B400C800B4000800B40234B1A68EB
:1020900042F480621A60224A00231370214A1370AE
:1020A000214A1370214A1370214A1370214B1B7867
:1020B0002BB1152B07D140F213321F4B02E01F4BFF
:1020C00040F213321A601E4B1B78012B05D0052BF2
:1020D00007D14FF451721B4B02E01B4B4FF451726E
:1020E0001A601A4BC0F344321A70C0F347125A7088
:1020F0000221042200F01F0098729A70D9745A7558
:1021000088221A743C22DA70114B40226FF44A7113
:102110001A700B444FF400521A6070473480044028
:10212000B390FF1F3190FF1FBC90FF1FB490FF1FA3
:102130003090FF1F7290FF1F18C0044040A0044061
:102140007887FF1F1CC0044044A0044000A0064044
:102150002DE400E0134A937800F0030103F0EC0350
:102160000B43410748BF43F01003937000F00F0387
:10217000042B0C4903D18B7943F040038B715379C5
:10218000C20603F0EF03074A48BF43F01003537140
:102190009379810603F0EF0348BF43F01003937176
:1021A000704700BF00A0064008B5114B1B685B05D7
:1021B00000D408BD0F4B1A7802F0FF0312B101F0F2
:1021C0003BF8F7E70C4A4FF4005111600B4A0C49F9
:1021D000D37040F203120A604A600A4A13700A4A36
:1021E00013700A4B1B680BB101221A7008BD00BFA7
:1021F000348004403090FF1F84E100E000A00640DE
:1022000040A00440B390FF1F3190FF1F2C90FF1F90
:1022100038B50446094B1B7803F0FF05002BF9D1B4
:1022200020460121FFF770FE20462946FFF73EFEBB
:10223000034B53F83420034B1A6038BD3090FF1F16
:1022400048C50000B890FF1F10B509B140F08000EC
:10225000144A13789842144622D0134A1268520541
:102260001DD503F07F03012B04D0052B05D10022DF
:102270000E4B01E00E4B00221A60002900F07F0295
:102280000CBF44236023012A05D0052A07D143F45B
:102290004073064A02E0064A43F44073136020701C
:1022A00010BD00BF7887FF1F348004401CC004406D
:1022B00044A004400E4A1378984218D00D4909688A
:1022C000490513D52BB1152B05D10B4B00211960F6
:1022D00001E00A490B6028B1152807D140F21331FB
:1022E000054B02E0054B40F2133119601070704746
:1022F0007290FF1F3480044018C0044040A0044086
:102300000D4A38B5146814F480624FF0000410D000
:1023100021280A4D0AD80A4A012152F830302B6090
:10232000FFF7F2FD2B681C70012038BD2C602046A1
:1023300038BD104638BD00BF348004402C90FF1FCC
:1023400048C500000E4B1B6813F4806316D012289A
:102350000C4B03D140F202310B4A04E0142809D19E
:102360000A4A40F2023111605A7B42F001025A736C
:10237000012070475A7B02F0FE025A73002070471A
:102380003480044000A006400CA0044014C0044067
:10239000F8B51D4B1B685A05064633D51B4B1B6809
:1023A0000BB101221A701A4B1C780134402C1F46C5
:1023B00028BF0024174D2B78A34218D1FFF70CFB40
:1023C00040280FDC144A13791B06F3D52B781349E8
:1023D0000133402B28BF0023C95CDBB2C9B2D171E5
:1023E0002B70E7E7FF28E5DD00F026FFE2E70B4B67
:1023F000F6B21E550A4B01221A70074BE4B2BC22FA
:102400003C70DA70F8BD00BF34800440B890FF1F04
:10241000BC90FF1FB490FF1F00A006403290FF1F2A
:102420003090FF1F274B1B685A052DE9F0470746E0
:102430008A4644D5244B1B680BB101221A703D46D5
:1024400007EB0A039D4237D2DFF890801F4E98F8C1
:10245000004096F800900134402C28BF00245FFA19
:1024600089F9A1451DD11A4BBC22DA70FFF7B4FAE5
:1024700040280FDC164A13791B060FD5337815490F
:102480000133402B28BF0023C95CDBB2C9B2D17134
:10249000337003E0FF2801DD00F0CEFE33784B45BA
:1024A000E4D00C4B15F8012B1A550B4B0122E4B26A
:1024B0001A7088F80040C3E7054BBC22DA70BDE80B
:1024C000F08700BF34800440B890FF1FB490FF1F16
:1024D00000A006403290FF1F3090FF1FBC90FF1FEE
:1024E00008B5034B1B7813B100F0A6FEF9E708BD51
:1024F0003090FF1F064A074B1B781078DBB2C0B242
:1025000083422CBF3F3000F1FF30C01A704700BF3C
:10251000B490FF1FBC90FF1F054B1878054B1B782C
:10252000C0B2DBB2984238BF4030C01A704700BF1B
:10253000B390FF1F3190FF1F10B5104B10491A7850
:102540000B78D2B2DBB29A4214D00133402B28BFB1
:1025500000230C48DCB2C05C0C700B490968C0B2A7
:1025600051B19A4238BF4032D31A1A2B04DC0023EF
:102570000B7010BD4FF0FF3010BD00BFB390FF1FB8
:102580003190FF1F7390FF1F2C90FF1F084B1A788C
:10259000084B1B78DBB29A4207D00133402B28BF8F
:1025A0000023054AD05CC0B270474FF0FF3070473F
:1025B000B390FF1F3190FF1F7390FF1F0C4B1B68E0
:1025C0005B0514D50B4BDA7802F0CB02DA704022AF
:1025D0005A74DA7842F03402DA70074B1A78074BF3
:1025E000D2B21A70064B1B680BB100221A707047EA
:1025F0003480044000A006403190FF1FB390FF1FBD
:102600002C90FF1F30B5374B1A7912F0300F31D0B4
:1026100072B69A7D02F0FF0022B9DA7940225A742C
:1026200062B627E062B6304A304913780978DBB2E7
:10263000C9B214462B4AD5795A1C402A28BF002219
:102640008A42EDB202D02A4B9D541346421E12F02C
:10265000FF00EFD1DAB22270264A126852B18B42E3
:1026600036BFC1F14001C1EB03035B18272BC4BF88
:10267000012313701B4BD978C9B20C0620D51B79E6
:1026800018061DD51C4B1D4A1D781378EDB2DBB220
:102690001046AB420CD0134A0133402B1479184C2E
:1026A00028BF0023E45CE4B2D471127D072AF0D97C
:1026B000DBB203700B4B1A79120644BF7C22DA702E
:1026C0004B060ED5074B1A7912F0400F194608D069
:1026D0000C4B00221A700C4B1B6803B11A703C2380
:1026E000CB7030BD00A00640B390FF1F3190FF1F9C
:1026F0007390FF1F2C90FF1FBC90FF1FB490FF1F13
:102700003290FF1F3090FF1FB890FF1FF0B50C4BA9
:102710000C4C1A7842F0020504EBC50682F0010267
:10272000706009481A700678002E0CBF8827C827E9
:1027300086F0010647EA0141067044F83510F0BD05
:102740002891FF1F0080FF1FA091FF1F431E032B36
:1027500010B510D872B6094A52F8230048B1416842
:1027600042F82310064A018832F81340611A22F811
:10277000131062B610BD002010BD00BF1891FF1FDE
:10278000B495FF1F013803280AD872B6054B53F8D9
:102790002030002013B101305B68FBE762B6704760
:1027A000002070476C91FF1F10B572B60123174AC5
:1027B0001A4412F8012C12071CD59900144A52F839
:1027C00031402CB902EB431308305860114B09E03B
:1027D00041F0010152F8314064B902EBC103083005
:1027E00058600D4B42F831300C4B1A78013A1A7090
:1027F00062B610BD0133052BD9D162B6074B00225A
:102800001A70BDE8104000F0C7BB00BF68C90000E7
:102810000080FF1F88004000C80040009691FF1F05
:10282000431E032B30B532D8194A400140F0100046
:10283000104472B6174CE25C032A09D8DFE802F0B4
:10284000160218050830022213E00830042210E0B6
:102850001148124A50F8234014B940F8231002E0FE
:1028600052F82300416042F823100FE0032200E0F9
:102870000522E25410F0080F01F108030A884360B2
:102880000CBF8823C82343EA0243036062B630BD0D
:102890000080FF1FD490FF1F6C91FF1F7C91FF1FD2
:1028A0002DE9F84FAB4F3C78E4B214F0040F3D46ED
:1028B00019D0A94B1B78A3B1A84A117801F0FF03E6
:1028C00021B1013BDBB2137003B900BEA44A1178F9
:1028D00001F0FF0329B1013BDBB213700BB900F02B
:1028E00087FC04233B7004F0080303F0FF02002B75
:1028F00000F067829B4B9C4C1A78D2B215094FEAC4
:10290000920840F0E48104EBC803596854F8383069
:10291000C3F38303013B0C2B00F2D681DFE813F0F5
:1029200095019501D401D401D401D401D401D4017D
:10293000B001D401D401D4010D008C4D0A684B685C
:102940008B486B6001218B4B44F838302A60DFF8EC
:102950005082017092B240F2816000238242C8F836
:1029600000302361A36117D8B2F5D06F80F01E81CB
:10297000B2F5817F00F0CF8006D8802A00F0BA80BF
:10298000822A00F0BB8031E140F202339A4200F02B
:10299000D180B2F5A06F1CE042F22100824200F02B
:1029A00051810ED8B2F5086F00F09E80B2F5106F1D
:1029B00040F01C81684B6C4EAA781A7006F18009B1
:1029C0000AE042F221218A4200F0088142F22133DA
:1029D0009A4200F00F8109E1336A1B0603D5706A41
:1029E000083800F0D9FA08364E45F5D10026B14630
:1029F000DFF8B0A156F80A0028B1D0F804B000F012
:102A0000CBFA5846F8E74AF806005B4BDFF898A186
:102A1000F05056F80A0028B1D0F804B000F0BCFA23
:102A20005846F8E7554B4AF80600F050544B23F847
:102A30001900544B19F80320023A032A08D8DFE89A
:102A400002F002040204002200E0012203F809203F
:102A500009F10109B9F1040F06F10406C8D14A4B86
:102A600000221A7001269A46484A494B32443344A0
:102A700012F8012C9B0012F0080F1A704FEA860919
:102A800025D000F06BFA38B104EB461308305860DB
:102A9000404B44F8393006E09AF8003044F83900E9
:102AA00001338AF8003000F059FA49F0010338B1D7
:102AB00004EBC302083050602E4A44F8332006E08D
:102AC00044F833009AF8003001338AF8003049F0B6
:102AD0000202013649F003090023052E44F8323082
:102AE00044F83930C0D186E01B4B2B4C1B78237047
:102AF0000B4683E0284C237063707EE0AA88042A8A
:102B000074D8254C920023706370244B9B5C9E0705
:102B100073D5217071E0AA8802F07F02042A65DC77
:102B20006B88002B62D191001C4A0A44117821F075
:102B3000020159E0AA8802F07F02042A56DC6B8861
:102B4000002B53D19100154A0A44117841F002013B
:102B50004AE000BF802007409F91FF1F2991FF1F7F
:102B6000B491FF1F902007400080FF1F8C91FF1F32
:102B7000A091FF1FC8004000C490FF1F7C91FF1F61
:102B8000B495FF1FD490FF1F9691FF1F68C90000E6
:102B900030C80110880040009791FF1FC0200740F7
:102BA000C090FF1F1891FF1F6C91FF1F6A88A988B2
:102BB0009F4B53F8084CA3F10C00BCB133F80C6CDC
:102BC000964209D133F80A6C8E4205D1120A032AC3
:102BD0000CBF2378038911E00C33EAE7954A1168AA
:102BE000954A1160A978954A117004E0944B0F2220
:102BF0001A7027E000231C4600E00223EE88B3424F
:102C000038BF1E46402E34BF354640252046294653
:102C1000FFF77CFD761B2C4403D1402D12D13546A5
:102C200003E0402E34BF3546402520462946FFF7B5
:102C30006DFD761B2C4401D1402D03D1814AC8F88B
:102C4000004016800122804B3DE0804B1A8842F202
:102C500021039A4210D100237D4AC85C9854013365
:102C6000072BF9D11368862B02D17A4B0F221A70E9
:102C700000200146FFF74AFD774B44F8383023E047
:102C8000764E3568B5B1DFF8BC81B8F80090B9F17F
:102C9000400F34BF4C46402428462146FFF736FDFE
:102CA000C4EB09039BB2A8F800300BB9402C00D14B
:102CB0002B193360654B1A88B2F5A06F04D100223E
:102CC0005A709A78664B1A7001225F4B6CE004EBE5
:102CD000C806013D736802F00802A3F10800EDB2D6
:102CE00002F0FF01002A36D000F056F95D485E4B35
:102CF00050F82520EAB1516840F8251002F108018A
:102D00007160595D03290BD8DFE801F00204060861
:102D1000032104E0022102E0052100E004215955CD
:102D200016F0080F12880CBF8823C82343EA024319
:102D300042E05A5D032A07D8DFE802F0404002046F
:102D4000002206E0012204E016F0080F0CBF022268
:102D500003225A5532E054F83820120C23F8082C7C
:102D600022B3DFF834E123F8061C43F8041C5EF8B4
:102D700025303E4913B94EF8250002E051F82530C0
:102D800058603B4B41F8250033F815100A4423F8EE
:102D9000152000F0E3F810B10830706006E0354B04
:102DA00044F838001A7801321A7007E02A4B324A88
:102DB00016F0080F08BF134644F8383008233B705C
:102DC00070E5E0071FD520492B482C4C02230B70DF
:102DD0002B4B1A702B4B186098602B48D8601A61E7
:102DE0009A615C60164B0D2018702848FF23037011
:102DF0002B700274264A1370264B9F221A700123EF
:102E00000B70BDE8F88F210604D50D4B0D221A700A
:102E100080232B70A20705D51C4B1A78D2B21A70EA
:102E200002232B70E30644BF10232B70BDE8F88FFC
:102E300078C900002890FF1FC495FF1FC491FF1F91
:102E4000C02007409491FF1F942007408C91FF1FE2
:102E5000BC95FF1F2991FF1FC8004000C090FF1FB5
:102E6000982007406C91FF1FD490FF1FC490FF1F54
:102E7000B495FF1F9691FF1F88004000D890FF1F58
:102E80002891FF1F0080FF1F2C91FF1F8820074003
:102E90008C200740842007401891FF1F08B504F0DC
:102EA00079FE00221A4B0021D15098180832882A46
:102EB0004160F7D1174A106840F48020106002F595
:102EC00028326832C3F307201070C3F307401B0E8B
:102ED00010751376FF2302F81C3C02F8143C02F82C
:102EE0008C3C012302F8083C82F8641002F8183C7C
:102EF000094B70226FF450711A700B444FF400723A
:102F00001A6003F1C04303F5C82310221A7008BDEC
:102F10000080FF1F3480044049E400E000F0A0B8C6
:102F200000F05CB800F080B800F034B900F0A6B84A
:102F3000084600F023B90846114600F0B7B87047BC
:102F4000044B00221A714FF47A711A73024A996085
:102F50001A607047A491FF1F60C6000072B60C4A49
:102F60001168B1FA81F30B2B02D962B600207047C9
:102F70004FF00040D84021EA0001116062B60549D7
:102F800048225343C8180022CA504260704700BF0D
:102F90007C87FF1F0084FF1F0C4B4822C31AB3FB22
:102FA000F2F30B2B11D80A4A127822B1094A12788F
:102FB0000AB1FFF7F9BB72B6074A4FF0004121FA98
:102FC00003F311681943116062B670470084FF1F54
:102FD0009691FF1F9F91FF1F7C87FF1F10B5104C1C
:102FE00023686BB120684288531C0244147A02881B
:102FF000934212D3FFF7D0FF094B00221A600DE075
:10300000084B1B7813B94FF0FF3010BD0320FFF7BA
:103010009DFB20600028E5D1F5E74380204610BDE8
:10302000C091FF1F9F91FF1F10B50B4C236813B178
:1030300023686BB902E0094B1B7813B94FF0FF30DE
:1030400010BD0320FFF782FB20600028F0D1F5E7D8
:103050005A881344187A10BDC091FF1F9F91FF1F1B
:10306000044B9888044B1B681BB11A885B88D31AE1
:1030700018447047B495FF1FC091FF1F10B5094B4E
:103080001B786BB1084C206818B1FFF785FF00234F
:1030900023600320FFF75AFB10B1FFF77DFFF8E72D
:1030A00010BD00BF9F91FF1FC091FF1F2DE9F84386
:1030B0002D4E012307460C463370002C4FD02B4D6C
:1030C0002B68A9462BBB4AF2F928294B1B7803F041
:1030D000FF020BB9327015E00420FFF753FB0728FD
:1030E00008D801233370FFF739FFC9F8000080B911
:1030F0001D4B1870B8F101081E4B01D01A782AB187
:1031000001221A704FF0FF30BDE8F88300F094F808
:10311000DBE72968174A488800231370C0F1400292
:10312000944238BF224600F1080C10448C44488079
:10313000A41A934204D0F85C0CF803000133F8E7BA
:103140001F444B883F2B06D940230B800420FFF7F8
:1031500067FB00232B60084B05221A70ADE7347023
:103160002046BDE8F88300BFB591FF1FB891FF1F4F
:103170009F91FF1FBC91FF1FB491FF1F07B502ABCA
:10318000012103F8010D1846FFF790FF03B05DF829
:1031900004FBFFFF2DE9F041114B1B78F3B1114EF9
:1031A000114B3468114D01271F7098464CB1002710
:1031B00063882F70042023802146FFF731FB37609E
:1031C00009E0FFF7CBFE014620B104202C70FFF789
:1031D00027FB00E02F70002388F80030BDE8F08165
:1031E0009F91FF1FB891FF1FB591FF1FB491FF1F63
:1031F00038B50E4B1B7803F0FF05ABB90C4C2168BA
:1032000031B14B880B800420FFF70AFB256038BDE5
:10321000FFF7A4FE014620B10420BDE83840FFF7C7
:10322000FFBA044B01221A7038BD00BFB591FF1FD1
:10323000B891FF1FB491FF1F10B50E4C2378BBB996
:1032400001232370FFF70CFF08B1FFF778FEFFF7AB
:1032500063F908B1FDF78DFF04F03EF908B103F002
:103260003CFE04F0CBFB08B103F0BFFE002323704B
:1032700010BD00BFC591FF1F0369D3F83801D3F813
:103280003431C01A704770470369D3F84422B2F54D
:10329000817F09D8D3F84422501CC3F84402134458
:1032A000012083F83C11704701230371002070470F
:1032B00030B50469D4F84432B3F5817F1DD8D4F811
:1032C0004432D4F84452C3F5817301332C449A42FA
:1032D00004F59E7402D9012202711A46002393421A
:1032E00003D0CD5CE5540133F9E70269D2F844120A
:1032F0001944C2F84412184630BD0123037100205E
:1033000030BDFFFF38B5094B0360036993F84822CD
:10331000022A044608D1D3F864522DB1284603F09E
:1033200049FD284603F072FE204638BD88C60000DD
:10333000C3681A789207FCD502221A707047FFFF03
:10334000002210B502710273064A02604FF47A74CB
:10335000054A84604FF41B74417304FB0121016131
:1033600010BD00BF88C600008087FF1F012814BF62
:10337000012002207047FFFFF8B5C3681B789B0649
:1033800004460E4600F19A80836880211970C36854
:103390001221197090F84932012B03D01AB980F824
:1033A000482200E01A46531E012B00F2898016B90C
:1033B0004FF0807103E0012E03D14FF00071414BBB
:1033C0001960022A76D1D4F8645245B9082003F076
:1033D0001BFE2946074603F099FCC4F86472D4F832
:1033E000645265B12B79102B09D1284603F0E2FC19
:1033F000284603F00BFE0023C4F864325AE046BBB3
:103400002B6831489A8B998B92B242F008029A83CA
:103410002A792E4B02F1100143F8210053119B0031
:1034200003F1604303F56143012102F01F0201FA39
:1034300002F21A602B689A8B998B92B242F00202C8
:103440009A832B7903F1804303F5043396221E708F
:1034500028E0012E27D12B681D489A8B998B92B2B8
:1034600042F008029A832A79184B02F1100143F8BE
:10347000210053119B0003F1604303F5614302F007
:103480001F0296401E602B689A8B998B92B242F075
:1034900002029A832B7903F1804303F5043300225F
:1034A0001A7097221A70002384F85A32022384F883
:1034B000483205E0012084F84802F8BD0020F8BD3C
:1034C0000120F8BD00E100E0E54200000082FF1F9E
:1034D000F14200004FF47A73F0B5B1FBF3F4B2FBA4
:1034E000F3F22402B4FBF2F200231B4D55F8234003
:1034F000B2EB042F03DB0133382BF6D100E043B3EA
:103500005C1E55F82460A2EB062686EAE677A7EB58
:10351000E67755F82360A2EB0622002AB8BF524294
:10352000974216DC0D4A4368125D1A7055F8243034
:10353000B1FBF3F3C0F84C32094B9942836902D9CD
:1035400004221A70F0BD074AB1FBF2F1C9B219703A
:10355000F0BD1C46E6E700BFA0C6000080C7000023
:10356000FF6BDC02001BB7002DE9F0479A469DF87F
:10357000203080460F46154633B1C2681278920655
:1035800002D50020BDE8F087BAF1000F40F2032613
:1035900040F2646240F2036908BF4FF4197608BF35
:1035A000914617B9012D05D94CE0012F49D1AA1E2A
:1035B000012A46D83BB398F84B32002B98F84A3290
:1035C00014BF02240024032B1DD8DFE803F00208F7
:1035D0000E1411202146FEF797FC102010E0122057
:1035E0002146FEF791FC13200AE01E202146FEF73B
:1035F0008BFC1D2004E01F202146FEF785FC1A20CD
:103600002146FEF781FC37B91DB1012D13D10F4BB7
:103610000EE00F4B0CE0012F0DD1022D07D0032D32
:1036200009D10C4BC3F80090C3F8049003E00A4B97
:103630001E6043F8046C88F84A5288F84BA20127B0
:1036400000E000273846BDE8F08700BF0CA004402A
:1036500004A0044000D004402CB0044073B50446DC
:103660000D469DF8180021B927490E6846F040061E
:1036700005E0012904D124490E6846F080060E6059
:10368000002184F8511284F84922616932B920235B
:103690000B7023681A70E3691A7015E000280CBFDC
:1036A000202228220A70216801D0834201D25A00C8
:1036B00000E04200D2B20A70E26920B1834234BF16
:1036C00040005800C0B210700023009329469DF8B6
:1036D00020309DF81C202046FFF746FF20460B496E
:1036E000099AFFF7F7FE9DF8282020462946FFF7A4
:1036F00043FE94F84922A3680AB9802200E0C02260
:103700001A7002B070BD00BF34800440006CDC024F
:1037100090F84A32032B2DE9F7430446894641D8F5
:10372000224AD55C224AD65C002E3BD0002D39D0EF
:1037300090F84B32002B14BF022100213046FEF7D7
:10374000E3FB28460121FEF7B1FB28460121FEF7E5
:10375000DBFB0B273046FEF7C9FB014618B9013FDA
:1037600017F0FF070CD1002184F85112009194F852
:103770004A2294F84B3220464946FFF7F5FE11E005
:1037800028464FF0A008FEF791FB4346013B7FF42B
:10379000FDAF01212846FEF789FBB8F101087FF44F
:1037A000FCAFD7E703B0BDE8F08300BFB8C70000A7
:1037B000BCC700002DE9F041164604460D461F46E1
:1037C000FEF7E0FB0EB9D4F86862FEF7DBFBA368F6
:1037D0001A789206804602D5B4221A7027E0002E8D
:1037E0004BD0FEF7CFFBC8EB0000B04245D3A36837
:1037F0001B789B060FD420462946FFF789FFE36814
:103800001B7803F0200303F0FF0223B9A36884F8B8
:103810004922B0221A70A3681B7803F0200303F03A
:10382000FF0023B9042384F85132BDE8F08194F8F5
:103830004832013B012B1DD8FEF7CEF81DB1012DFA
:1038400001D1154B00E0154B1A78904212DC0F287D
:1038500003DC01203870BDE8F08110383DB1012D46
:1038600005D10D4BC0B218702846BDE8F0810B4B56
:10387000C0B218700120BDE8F081E3681A7802F048
:10388000200202F0FF03002AA9D184F84932A3687C
:10389000B0221A70ABE700BF19E400E018E400E0C2
:1038A0000369490083F83C1103690122C3F84422EB
:1038B0000022027183F851227047F7B51E4600239B
:1038C0008DF80730D0F8443204461546002B00F03E
:1038D000AD800EB9D0F86862E36812221A702046F3
:1038E00032460DF10703FFF765FF002800F09E80C8
:1038F00094F8483213B19DF80710A1B1FEF742FBCE
:10390000012384F85052074684F851320025D4F838
:1039100044329D4252D2002E62D0FEF733FBC01BD0
:10392000B0425DD34AE05A1E012A7FD80120022B03
:1039300084F8510284F85052C4F8401236D1D4F8B9
:103940004432042B32D9D4F8642284F85A02136822
:10395000D4F84452D97104F59F761F6818711E601F
:1039600059711368187259729972D9721368033DAC
:103970006842D860A8B2DD8BD8831368DA8AD8820F
:10398000D4F8642220691368B0F1804F99711D69E1
:10399000197518615975136841D3996800293ED08B
:1039A000136800221A765A769A76DA76A368F0229D
:1039B0001A70236994F83C211A7037E0D4F8443225
:1039C0009D4201D2042300E0002384F8513294F890
:1039D0005032012BA36801D18022EDE7B022EBE742
:1039E0006219236992F83C211A702046FFF7A0FC67
:1039F000E3681A78D2B2D10605D5072284F851229D
:103A000010221A7007E0D00707D50DB9052300E092
:103A1000062384F85132A368DEE7013577E70021F9
:103A20000120187259729972D972B9E703B0F0BDCA
:103A30002DE9F3411646002204469DF82070099DA9
:103A40008DF80720002B00F01481B3F5827F03D39B
:103A5000082380F851320CE1C0F83421C0F8543208
:103A6000C0F838210DB9D0F86852E36812221A70F4
:103A700020462A460DF10703FFF79CFE002800F0C0
:103A8000F88094F848321BB19DF80720002A3FD0F7
:103A9000FEF778FA7600022384F8513246F00106E8
:103AA000236984F85072F6B21E7080462046FFF7F4
:103AB0003FFCE2681378DBB2D90606D5072384F809
:103AC000513210231370A36806E013F0010FA368AE
:103AD00005D0052284F8512280221A70C9E0032201
:103AE00084F85122D4F85422012A0CBFA822A02223
:103AF0001A7023691B78D4F83821D4F854329A42CA
:103B000080F0B78094F85132032B40F0B28052E03D
:103B1000591E012900F2AD8002218B4284F8511216
:103B200084F850723DD1D4F85432042B39D9D4F8EA
:103B300064122069012384F85A320B68B0F1804F77
:103B4000DA711D681A7118605A710B6801D39A688E
:103B50002AB90022012018725A729A72DA72D4F8C5
:103B600064020A680168D4F854520F690023137381
:103B700053739373D3738B7104F130020A6102683B
:103B80004B7501270F75177253729372D3720368C6
:103B9000013D6A429A61AAB2D98BDA830368D98A55
:103BA000DA82A368F0221A707600236946F00106D3
:103BB000F6B21E705DE02046FFF7BAFB002D56D02E
:103BC000FEF7E0F9C8EB0000A84234BF0023012350
:103BD000D4F83811D4F85422023191420FD013B1E5
:103BE00094F859225AB1D4F83811D4F8542201313A
:103BF000914219D23BB194F85922AAB903E0A268C4
:103C0000A8211170EFE722691178D4F83821501CEF
:103C10002244C4F8380182F83010002B3FF46BAF17
:103C2000012384F8593266E7002284F85922A268F9
:103C3000B021117022691178D4F83821501C224427
:103C4000C4F8380182F830101BB1042284F85122E4
:103C500001E084F8513294F85022012ADDD120226B
:103C6000013A7FF4FDAFA26880211170D5E72B46A1
:103C7000AEE702B0BDE8F081036993F85132043B2E
:103C8000042B0AD8DFE803F0070E05070300012024
:103C9000704703207047042070470079003018BF38
:103CA000012070470220704790F85132B3B190F86C
:103CB0005132052B12D090F85132062B0ED090F8CD
:103CC0005132072B0AD090F85132042B06D090F8CD
:103CD0005102B0F108035842584170470120704723
:103CE00070B515460446FEF74DF90DB9D4F8685283
:103CF000FEF748F906462046FFF7D6FF88BB002DA1
:103D0000F9D0FEF73FF9801BA842F4D3FEF73AF949
:103D1000801BA8420ED394F84832022B0AD194F8A3
:103D20005A323BB12046FFF7BFFF0028FAD00423E8
:103D300084F8513294F85132012B15D094F8513255
:103D4000022B11D094F85132032B0DD08023013B6C
:103D50007FF4FDAF94F85102D0F1010038BF00208C
:103D600070BD002DE6D0D1E7042384F85132EDE791
:103D7000F8B5069C07460E461546084611461A46F3
:103D80002346FFF79AFD304629462246FFF7A8FF53
:103D90003846BDE8F840FFF76FBFF7B5099D044608
:103DA0000E460BB900200EE09DF82070009701959B
:103DB000FFF73EFE204631462A46FFF791FF0028D6
:103DC000F0D0D4F8380103B0F0BDD0F83421D0F8E9
:103DD00038319A4208D2D0F834315A1CC0F8342114
:103DE000184490F8300070474FF0FF30704700697A
:103DF000FFF7EBBFD0F83421D0F838319A423DBFFD
:103E0000D0F83431C01890F830004FF0FF307047D0
:103E10000069FFF7EFBFFFFF38B5C2688368157808
:103E20001978C9B204468806EDB217D5C9060AD575
:103E300094F85A12022900F0C78094F85A12032904
:103E400040F0C980C0E094F85A22022A00F09A811A
:103E500094F85A22032A40F0758193E115F0100F6F
:103E600005F0400304D010201070002B00F0A88053
:103E700003F0FF02002B53D094F851320A2B04D1E7
:103E8000D4F85C32002B40F01E8205F0040505F0EA
:103E9000FF03F5B1092384F851320023C4F84432FA
:103EA000A368D0221A7023691B785B0884F8523209
:103EB000D4F8603203B19847D4F844320BB984F88F
:103EC0003C31236994F83C211A700123C4F8403234
:103ED00076E094F84A2284F85832012A01D112205F
:103EE00001E012B91120B24903E0022A03D1B1491D
:103EF0001E20032203E0032A03D1AE491F20FDF751
:103F000067FF0A2384F851320023C4F83831A368CC
:103F1000C0221A7023691B785B0884F852324FE084
:103F200001F0100101F0FF03F1B115F0010513D10B
:103F3000D4F84022D4F844329A4207D2D4F840321E
:103F40005A1C2344C4F8402293F83C5123691D7045
:103F5000A368D0221A7033E0A368C02119702369C6
:103F60001B7884F851222BE094F851220A2A27D199
:103F700094F84A2284F85832012A01D1122001E033
:103F800012B911208A4903E0022A03D189491E206F
:103F9000032203E0032A03D186491F20FDF718FFFF
:103FA00023691A78D4F83831B3F5817FD2B207D8B3
:103FB000D4F83831591C2344C4F8381183F8302020
:103FC000E36802221A7038BDD4F864321968898B0C
:103FD000090643D592E094F85112012957D105F012
:103FE000100101F0FF0069B10023072184F85A3263
:103FF00084F8511212211170A26880211170C4F846
:10400000403238BD15F001050AD084F85A02D4F8C0
:104010004022002A4CD0062284F85122802299E7BF
:10402000D4F840220132C4F84022D4F844128A4223
:1040300002D384F851525BE094F85A22012A1FD12E
:10404000022284F85A22F1221A70D4F864321A79C2
:10405000594B1A70236994F83D217BE794F85A1262
:10406000032955D111780D06FCD51A79534B1A70D6
:10407000002384F85A32D4F84432013BC4F8403269
:10408000D4F840222369224492F83C2162E794F854
:104090005112C9B2022927D1E80607D5072384F8AF
:1040A000513212231370A36880228BE7E80701D5F1
:1040B0000522B1E794F85A22012A08D1E12284F8B6
:1040C0005A121A70D4F864321A793B4B08E0032272
:1040D00084F85122D4F85422012A0CBFE822E022AD
:1040E0001A7023691B786BE794F85122042A95D142
:1040F00094F85022012A91D0B0222BE794F85A125A
:104100000229ABD11A792E4B1A70A368F02249E02C
:104110002C4A1B7912680121994011423FF450AF9B
:10412000274A1370D4F864321A79274B1A70002387
:10413000EA0684F85A327FF543AF072284F8512209
:10414000E26857E7D4F83811D4F85422023191428A
:104150007CD094F85122042A03D194F85922002AE1
:1041600074D0D4F83821D4F8543201329A4280F015
:10417000888094F85132042B6BD194F85932002B7B
:104180007FD166E0D4F864321A681B79928B12F002
:10419000800F1BD094F85A22022A17D1084A1370B4
:1041A000A368E8221A70032384F85A3208E700BF94
:1041B000914300009D4300001B8000401C80004094
:1041C0001F8000402C8000401E80004094F85A223E
:1041D000032A26D13F4A1370002384F85A3294F8F8
:1041E0005122042A18BF84F85132A368B0221A70F1
:1041F000D4F85432013BC4F83831D4F838315A1C61
:10420000C4F8382122692344127883F8302094F8C6
:104210005032012B7FF4D4AE2023013B7FF4FDAF5D
:1042200012E02D4A01211268994011423FF4C8AEB4
:104230002A4A1370D4F864321A79294B1A70002371
:1042400084F85A3284F85132A368E7E6E8221A70FB
:1042500087E7D4F838315A1CC4F83821226923443E
:10426000127883F8302094F85132042B7FF4A8AEF2
:1042700094F85932002B7FF4A3AE012384F859320D
:104280009EE694F851220023042A84F8593201D082
:1042900084F85132A368B0221A70D4F838315A1C0D
:1042A000C4F8382122692344127883F8302094F826
:1042B0005032012BD7D12023013B7FF4FDAFA368FF
:1042C00080221A70CFE70022C4F83421D4F83801D4
:1042D0009847DAE51C8000402C8000401E8000409A
:1042E0001F80004001480021FFF796BD8087FF1F17
:1042F00001480121FFF790BDEC89FF1F10B5C3688D
:104300001B7803F02003044603F0FF02EBB990F89A
:104310004A3280F85122012B01D1122009E00BB959
:10432000112006E0022B01D11E2002E0032B02D156
:104330001F20FDF793FDD4F85C323BB30022C4F894
:104340003421D4F83801984710BD90F85832013321
:10435000DBB2012B80F8583204D890F84932012B97
:1043600000D110BD94F84A32012B01D1122009E08E
:104370000BB9112006E0022B08BF1E2002D0032B30
:1043800004D11F20BDE81040FDF768BD10BDFFFF40
:1043900001480021FFF7B2BF8087FF1F01480121BC
:1043A000FFF7ACBFEC89FF1F70B50C4E0C4D0D4CE8
:1043B00030460021FEF7C4FF30460B4E2246294608
:1043C00003F0B6FD30460121FEF7BAFF304629461C
:1043D0002246BDE8704003F0ABBD00BFDC91FF1F7B
:1043E000053300006087FF1FC891FF1F08B50368F1
:1043F0009B6A9847003018BF012008BD7047FFFF37
:1044000048F28003984210B504D1204B1C7844F048
:10441000010407E048F20103984205D11B4B1C78C8
:1044200044F002041C701AE048F20203984205D1DD
:10443000164B1A7802F0F9021A701DE048F21003C8
:10444000984204D1114B1A7842F0040205E09928F1
:1044500005D10E4B1A7842F008021A7010BD48F2CE
:104460004003984208D10A4B187801301870BDE813
:104470001040084802F0B0BBB0F5084F05D10B78EA
:104480001F2B02D8044A0121D15410BD1B92FF1FDB
:104490002592FF1F2892FF1FFA91FF1FF0B585B0EC
:1044A00004AC00230546084644F80C3D0E4617466A
:1044B00005F079F8224681B2304601F041FB019BBC
:1044C00053B150B12968064A8C6902920393284679
:1044D00002A93A46A04700E0184605B0F0BD00BF6B
:1044E00010C500002DE9FF410024A0F84E4080F8DF
:1044F0004D4006468846174602200121062201F05B
:10450000CBFA431C054629D0164B21461C541022D9
:104510006846FCF793FD0223ADF800303B0A8DF8A6
:104520000230D8F804308DF803701A0E8DF804208C
:104530001A0C8DF805201A0A8DF8062028466946BF
:1045400010228DF8073001F033FB013003D12846EB
:1045500001F0D0FA02E03565012000E0204604B009
:10456000BDE8F081FA91FF1F07B502AB012203F805
:10457000011D006D1946002301F0B6FC20EAE07031
:1045800003B05DF804FB10B5036D002B86B025DB8E
:10459000B0F94E20002A05DD90F84D00904201DA76
:1045A000101A1CE0590906A800EB8101012403F050
:1045B0001F00002204FA00F0039241F80C0C41F2B3
:1045C0008831059104A90091181903A91346049292
:1045D00001F01CFB031B5842584100E0002006B0CC
:1045E00010BDFFFF036D002B70B504460FDB0368A1
:1045F0009B689847054660B9206D074E335C43B110
:1046000001F078FA236DF5544FF0FF332365002055
:1046100070BD012070BD00BFFA91FF1F0A22002368
:10462000FCF7C8BEF0B5144D07460E460FCD97B047
:1046300006AC0FC40FCD0FC40FCD0FC495E80F000B
:1046400084E80F003878A0B141F6FF706FF0770171
:1046500000224FF496738DE80F0006AB04933046AA
:1046600014216422052301F089FDD0F1010038BF37
:10467000002017B0F0BD00BFC0C7000030B50A4D24
:1046800000240470297009490A70094A1370094B03
:10469000FF221A70084B9DF80C201A70074B084A2D
:1046A0001C70049B136030BD2492FF1FF891FF1F04
:1046B0001C92FF1F1A92FF1FF991FF1F1B92FF1FF1
:1046C0002092FF1F2DE9FF410478074688461546D2
:1046D0001E46002C4DD1294B294A1B78222B28BF7E
:1046E000FF23137000F07EFB264B0093264B0193B3
:1046F000264B0293264B039326482749274A284BEB
:1047000001F038FC404601F049FC45B928462946ED
:104710002A4601F0F3FCFF2001F014FD04E02046DE
:104720002146012201F0EAFC48F2042001F062FD7A
:1047300000BB01233B70E5B140F2EA35194F3B78ED
:104740009A0707D400F046FD013D13D00A20FDF77B
:1047500037FCF3E74FF47A70FDF732FC3B785B07E8
:1047600007D5304604F01FFF314682B2012001F028
:10477000C5FB0124204604B0BDE8F081F891FF1F7D
:104780001A92FF1F99500000A9500000A551000087
:104790008550000001440000CD510000BD510000D3
:1047A000C55100001B92FF1FF8B5154D2B680F4631
:1047B000164623B30024B44228681CD01149FBF7E5
:1047C0005AFE3B5D0F2B04D80D4B0F491868FBF7C1
:1047D00052FE2868395D10220023FCF7EBFD012E04
:1047E00007D9731E9C4204D0054B20211868FBF7A3
:1047F0004FFE0134DFE7BDE8F840FCF7CBBDF8BD64
:104800002092FF1FE9C3000043C5000038B5114CDA
:1048100020680D46E0B1090EFFF700FF2E21206849
:10482000FBF736FEC5F307412068FFF7F7FE2E21A0
:104830002068FBF72DFEC5F307212068FFF7EEFE89
:104840002E212068FBF724FE2068E9B2FFF7E6FE80
:1048500038BD00BF2092FF1F007808B50B4640B15D
:1048600006200146002201F0E9F8D0F1010038BF2E
:10487000002008BDF0B5047891B00D4616461F46DD
:104880000CB9002419E00E4803789A07F9D503788B
:104890005B07F6D501A801F0BFF89DF80730002BA3
:1048A000EFD00198286002983060169B039838601A
:1048B00004981860179B05981860204611B0F0BD49
:1048C0001B92FF1F037837B50D460BB900201AE085
:1048D00000200146024601F011FC04460028F5D1F3
:1048E0004FF4FA70FDF76CFB284604F05CFE009470
:1048F0000246019420462946234601F099FBD0F157
:10490000010038BF002003B030BD2DE9F3411E4641
:1049100003780C4615460BB900202AE0032EFBD87D
:10492000084604F040FE2028F6D8284604F03BFE56
:104930002028F1D800200146024601F0DFFB07469F
:104940000028E9D14FF4FA70FDF73AFB204604F055
:104950002AFE8046284604F026FE00950190214656
:10496000304642463B4601F063FBD0F1010038BFC0
:10497000002002B0BDE8F0812DE9F74F05789DF8E1
:1049800030B00446884691469A46002D3DD05E469A
:10499000204FBBF1000F06D01EB93D78C5F340058E
:1049A00033E0013EF6B200F015FC4FF47A61204688
:1049B000FFF738FE41F29410FDF702FB002120467C
:1049C000FFF730FE20464146BAF1000F02D099F8B9
:1049D00000302BB9FFF776FFA0B14FF47A730EE0E9
:1049E0004A465346FFF791FFF6E7019300F0F2FBCA
:1049F0000A20FDF7E5FA019B013B9BB213B13A781F
:104A00009207F2D53B789B07C2D5284603B0BDE894
:104A1000F08F00BF1B92FF1F007838B50C4615467B
:104A2000A8B10B4B197801F0020101F0FF0071B140
:104A30001B7803F0040303F0FF0043B1204604F0A9
:104A4000B2FD2A4681B2204601F07AF880B238BD24
:104A50001B92FF1F13B5084B1A7812F0040F1C4667
:104A600004D00648092101AA01F06AF82078C0F3B1
:104A7000800002B010BD00BF1B92FF1F00C80000E5
:104A8000002202710273044A02604FF47A714FF0FF
:104A9000FF3281600265704718C8000008B5006DDC
:104AA00001F022FA08BD92B20023FFF7F7BF08B564
:104AB000006D01F099F908BD92B20023FFF7F7BF2E
:104AC00010B50446006D01F015F84FF0FF33236573
:104AD00010BDFFF7F5BF38B50446B4F94E20002AE3
:104AE00016DC00F077FB206D04F10D01402200235D
:104AF00001F07AF9A4F84E0039304FF0000504D1E6
:104B00002046FFF7DDFF284638BD84F84D50E4E726
:104B100094F84D309A42E4D0E2180133507B84F887
:104B20004D3038BD38B50446B4F94E20002A16DCA5
:104B300000F050FB206D04F10D014022002301F034
:104B400053F9A4F84E0039304FF0000504D1204647
:104B5000FFF7B6FF284638BD84F84D50E4E794F8D7
:104B60004D309A42E4D01C44607B38BD024B034A6E
:104B70001A6000225A607047F091FF1F10C50000B4
:104B8000002AF0B50CBF4FF064524FF06052002481
:104B90000F4E104FA65B104D97FBF6F6B14255F83D
:104BA000145004D3190706D542F0806203E00234A2
:104BB0002E2CEDD1F6E75B0707D525F4704305F4FD
:104BC000704542F0007243EA15152A430260F0BDB9
:104BD000C0C90000006CDC02F0C9000010B504463A
:104BE000FFF7CEFF204610BDC31E012B03D91828A6
:104BF00001D0212801D157202DE0012807D9A0F1AB
:104C00001003032B03D9192801D0202801D15820E3
:104C100021E0A0F10903042B09D90F2807D0A0F146
:104C20001603012B03D9A0F11B03032B01D8592034
:104C300011E0022808D0431F032B05D90E2803D00A
:104C4000A0F11403012B01D85A2004E01A2801D046
:104C50001F2802D15B2003F033B8704710B5184B02
:104C60001A7802B372B61B78D90707D5154A1649C8
:104C7000146809682140154C216011609A0707D516
:104C8000134A1149146849682140104C6160116051
:104C90005B0707D50F4B0C4A196892680A400B490D
:104CA0008A601A6062B60C4BDA68824207D00B4AFF
:104CB0001A60D8600A4A40F0804018611A6010BD3E
:104CC000A895FF1F80E100E09095FF1F9C95FF1FB6
:104CD00084E100E088E100E000C0024001401F00E4
:104CE00000001F800A4B1B788BB1D90703D5094AF6
:104CF0001168094A11609A0703D5064A5168074AA4
:104D000011605B0703D5034B9A68054B1A60704727
:104D1000A895FF1F9C95FF1F00E100E004E100E063
:104D200008E100E007B50346042B01A801D11049B2
:104D300014E013B90F49012212E0052B01D10E49ED
:104D40000CE0012B02D10D491A4608E0062B01D1D7
:104D50000B4903E0022B0CBF0A490B490122002337
:104D6000FFF73CFF019803F0CBF803B05DF804FBBC
:104D7000001BB70000093D0080841E0040420F0068
:104D800020A1070090D0030048E801002DE9F84376
:104D9000104E114C114F00254FF0830881462946D3
:104DA00042463046A560FCF749F938462946424656
:104DB000FCF744F9DE2386F8823087F88230084B0E
:104DC000C4F80090A580E5602661E5801B6A9847DD
:104DD000BDE8F883C192FF1F4493FF1F3D92FF1F60
:104DE0005893FF1F10B5164C01212078FDF78CF861
:104DF0002078144C0021FDF759F84FF4FA70FDF7B4
:104E0000DFF820780121FDF77FF80F4B0221187899
:104E1000FDF77AF802F00EFF042002F07FFF012078
:104E200002F068FF094B1878FFF77CFF084B1878F1
:104E3000FFF7DAFE20780121FDF738F8002010BDD9
:104E40001C92FF1F2492FF1FF891FF1FF991FF1F73
:104E50001A92FF1F30B500239AB28A420CD2074A39
:104E6000C45C4FF00045D5625463D46A002CFCDA70
:104E7000024A0133926BEFE730BD00BF00C0024031
:104E800073B50122042304460E46134D134901A8AD
:104E9000FFF7A4FE0198FFF7E1FE28780021FDF757
:104EA00005F80120FDF78CF820460421FFF7D2FF1A
:104EB0000120FDF785F8311F201D89B2FFF7CAFFD9
:104EC000074B2878022201219A60FCF7EFFFFFF7D9
:104ED00009FF002002B070BD2492FF1F0024F400DF
:104EE0004493FF1F38B5044604200D4602F016FF18
:104EF00000239AB2AA420DD2074A4FF00041D16274
:104F000003215163D16A0029FCDA034A926BE2540F
:104F10000133EEE738BD00BF00C00240024B0A215A
:104F20001869FFF7DFBF00BF4493FF1F38B5144A6D
:104F300014696379022B154602D0042B10D01DE0B2
:104F40000321601D00F06CF9C307014601D4411C28
:104F500000E098B104F10A0089B2FFF7C3FF0DE049
:104F6000217A4B1E13F0010F08BF194621B104F13D
:104F70000A0089B2FFF7B6FF0823AB60002038BDF6
:104F80004493FF1F034B00221A70034B1878FCF761
:104F900065BF00BF3C92FF1F1A92FF1F044B0549DB
:104FA00001221A70044B02221878FCF711BF00BFCF
:104FB0003C92FF1F095000001A92FF1F08B5FFF72F
:104FC000E1FF0A4B01211878FCF770FFFFF78AFE1A
:104FD000074B186990F88220DE2A00D0FEE70222F3
:104FE0009A6005301B68984708BD00BF2492FF1FD8
:104FF0004493FF1F08B5FFF799FF18B9BDE80840B3
:10500000FFF7DCBF08BDFFFF73B51A4C1A4AA3684F
:105010000125157016460BB9A56027E0022B16D1A5
:1050200006232A46A3601549042301A8FFF7D6FDED
:105030000198FFF713FE124B00211878FCF736FF9A
:10504000FFF76CFF0823A360FFF7D4FF0EE0032BEC
:105050000CD1E068A188FFF7FDFE0223A360084B96
:1050600029461878FCF722FFFFF73CFE0023337037
:1050700002B070BD4493FF1FC092FF1F0024F400D4
:105080002492FF1F034B0146187801B10121FCF760
:105090000DBF00BF1C92FF1F08B5024B1878FCF72C
:1050A00025FF08BDF891FF1F044B054901221A7026
:1050B000044B02221878FCF78BBE00BF3C92FF1F06
:1050C000095000001A92FF1F2DE9F34701F0010A71
:1050D0008AF0010A01EB0A03C3F3072283704FF041
:1050E000000801262A4B0670427080F8038080F881
:1050F000048093F88230DE2B054600D0FEE7DFF80F
:10510000A090D9F808304C4603B9FEE705311AFAE9
:1051100081FA012B1FFA8AFA03D15146FFF7B0FE3C
:105120002EE01C4F7B6A9847D9F80890B9F1020F1E
:1051300000D0FEE7032332461749A360E56004234D
:1051400001A8164DA4F804A0FFF748FD0198FFF749
:1051500085FD28784146FCF7A9FE3B6A9847FB6924
:10516000984768B9E068A188FFF774FE2878C4F80A
:1051700008903146FCF79AFEFFF7B4FDFFF794FF65
:10518000A368022B00D0FEE7002002B0BDE8F08744
:105190003D92FF1F5893FF1F0024F4002492FF1F2D
:1051A0004493FF1F034B00221A70034B1878FCF73F
:1051B00055BE00BF3C92FF1F1A92FF1F00230360E1
:1051C00018467047002303601846704700230360A9
:1051D0001846704708B5084B1878FCF787FE48B9A1
:1051E000064B1B7833B9064B1B781BB1BDE8084052
:1051F000FFF70ABF08BD00BFF891FF1FC092FF1F55
:105200003C92FF1F0B0A017043700B0C090E837058
:10521000C17004307047017009124170023070474C
:1052200043185A78435C03EB022080B2704710B5F4
:105230004318415C9A78DC785878120402EB0462D7
:105240000A4402EB002010BD73B544790023022C00
:1052500001930FD0032C19D0012C2BD1164D2B69A3
:105260002E4623B12B6901A898470246B8B9B16808
:1052700001201BE0104DEB682E4623B1EB6801A81E
:105280009847024658B9B16802200FE00A4D6B6991
:105290002E464BB16B6901A89847024620B1A96818
:1052A000BDF80430204603E0B16803200022134615
:1052B00000F04CFB02B070BD5893FF1F072810B5DB
:1052C0000BD8012909D8054B01241A68844022EA29
:1052D000040201FA00F002431A6010BD588CFF1F4F
:1052E00070B5012186B00546FFF79AFF42040446D7
:1052F00028D5B0F5824F25D128460521FFF790FF2C
:1053000005EB8000EE1D0024C51DAE4206D03046E0
:105310000221FFF785FF04360444F6E7724B1A8E2C
:1053200014FA82F292B21A86DA6B1444DC63D96BF7
:105330009A6B91423BD193F84020002A37D09B6969
:10534000992031E0230440F19D8048F240039C42C3
:105350006CD012D848F204039C4220D006D8A4F5A1
:105360000043013B012B00F2BC8018E048F210031F
:105370009C4240F0B68000231BE0B4F5044F0ED0F1
:1053800006D848F280039C4209D0B4F5024F04E0ED
:10539000B4F5084F6DD0B4F5094F40F0A280524BE0
:1053A0009A6922B19B69204600210A46984701204C
:1053B00098E0EA1852790DF803200133042BF8D154
:1053C0006B7A8DF80430AB7A8DF80530EB7A8DF876
:1053D00006302B7B8DF8073005F10D00002300AA65
:1053E0001A44C15C11720133042BF8D105F111008C
:1053F000002300AA1A44C15C11730133042BF8D1B5
:1054000005F11500002300AA1A44C15C1174013390
:10541000042BF8D12B798DF81430334B9A69002A7C
:10542000C5D09B69204669461522BFE70535002196
:105430002846FFF7FCFE042100902846FFF7F7FE00
:10544000082101902846FFF7F2FE0C210290284621
:10545000FFF7EDFE102103902846FFF7E8FE224BF0
:1054600004909A69002AA2D09B69204669461422BA
:105470009CE71D4B9A69002A99D09B692046691DBB
:10548000012293E741F203039C4205D0A4F5805327
:105490000E3B9BB2012B1AD86C1D20460421FFF74E
:1054A000C6FE39301DD1104B2A79DA620021204620
:1054B000FFF7BDFE042105462046FFF7B8FE393050
:1054C0007FF475AF28460121FFF7F8FE6FE7064B22
:1054D0001B889BB29C4204D0B4F5805018BF0120B9
:1054E00000E0002006B070BD5893FF1F38B50A4C8D
:1054F00063889BB20BB9002038BD60680378042B29
:10550000F9D1FFF7EDFE01280546F4D100236380B1
:10551000FFF744FD284638BD5893FF1F2DE9F84F8B
:105520000446894692460025DFF88083FFF752FE45
:10553000B8F802309BB2002BF6D0D8F8046033786C
:10554000042B40F0778101213046FFF769FE0546C4
:105550003046FFF7C5FE0146002840F0628141F267
:1055600007039D4206F1050752D841F206039D420A
:1055700080F0AC8040F202239D4200F0A78011D859
:105580000C2D09D8082D80F0A180002D00F0498154
:10559000062D00F2E48099E00D2D00F0948040F299
:1055A00001237EE041F202039D4218D8B5F5805FE9
:1055B00000F28C80B5F5017F40F2858040F2072330
:1055C0009D4240F02E81337904F8013B384600219A
:1055D000FFF72DFE01462046FFF714FE21E141F2C0
:1055E00004039D4200F0918040F2A78000213846DC
:1055F000FFF71DFE042120603846FFF718FE08342F
:1056000044F8040C06F10D03224606F11D0175E075
:1056100041F211039D4256D02BD841F20B039D421B
:1056200054D01CD841F209039D424FD000F2928021
:1056300000213846FFF7FBFD042120603846FFF7C4
:10564000F6FD082160603846FFF7F1FD0C21A060EF
:105650003846FFF7ECFD04F10C0BE060E0E041F2AE
:105660000F039D4269D037D841F20D039D424CD0C3
:10567000D7E042F205039D4200F0958007D841F241
:1056800012039D4235D0B5F5005F1CD8C9E042F247
:1056900009039D4208D842F208039D4213D242F208
:1056A00006039D420FD0BCE044F20B039D4240F044
:1056B000B8807379A8F8303038460121FFF7B0FD83
:1056C000A8F83200ADE033792370AAE03846002113
:1056D000FFF7ADFD2060A4E000213846FFF7A7FDED
:1056E000A34604214BF8040B3846FFF7A0FD606089
:1056F00096E03846FFF794FD208092E053F8040BC3
:1057000042F8040B8B42F9D18BE000213846FFF7B9
:105710008EFD042120603846FFF789FD0821606076
:105720003846FFF784FDE368A060393304F1080BC5
:1057300076D10121FFF7C2FD72E000213846FFF764
:1057400076FD042120603846FFF771FD083444F8E7
:10575000040C66E0337923713B68236061E000212B
:105760003846FFF764FD042120603846FFF75FFDEF
:10577000082160603846FFF753FD0A21A0603846D3
:10578000FFF74EFD0C3444F8020C06F111032246DB
:1057900006F1350153F8040B42F8040B8B42F9D1A2
:1057A0001B8813803DE073185B7963540131042931
:1057B000F9D106F109000023C15CE2180133042B82
:1057C0001171F9D106F10D000023C15CE21801331B
:1057D000042B1172F9D106F111000023C15CE2180B
:1057E0000133042B1173F9D106F115000023C15CBC
:1057F000E2180133042B1174F9D106F119000023CA
:10580000C15CE2180133062B1175F9D106F11F00B6
:105810000023C15CE2180133202B9176F9D100E01E
:105820005C46B8F800309BB29D4223D11F4B00224A
:105830001A801FE030460321B778FFF7F1FC83465A
:10584000B9F1000F0CD00421701DFFF7F0FC0246E7
:10585000CAF8000006F115014846D2B201F0BCF9C1
:10586000791D20463144C7EB0B0201F0B5F9002346
:10587000A8F836300023A8F80230FFF78FFB337802
:10588000042B05D1B5F5805F02D13046FFF7DCFC73
:10589000B8F800309BB2002B7FF446AE034BD88E95
:1058A00080B200287FF440AEBDE8F88F5893FF1F08
:1058B00007284FF0010308D803FA00F0044B1A68D8
:1058C00010420CBF0020012070471846704700BFEF
:1058D000588CFF1F034B1880084600210A46FFF72B
:1058E0001DBE00BF5893FF1F10B5034B0124DC867B
:1058F000BDE81040FFF712BE5893FF1F38B50346AE
:10590000154601224A710C46881D1946FFF783FC93
:10591000291D05702046FFF7D7FB002038BD38B59C
:10592000BDF814502B440C46D518ADB2022161715C
:10593000A071E271294604F10800FFF76CFC691DB3
:10594000204689B2FFF7C0FB002038BD2DE9F84F93
:105950001C4604F1020B032301F107091FFA8BFB1C
:1059600088710D464B71484659461646FFF753FC61
:10597000B4F57A7F824605F10B0812D82146FFF76D
:105980004AFC21465046FFF746FC31464046224637
:1059900001F022F9A11D284689B2BDE8F84FFFF7B2
:1059A00093BB4FF47A77B4FBF7F30BEB430189B267
:1059B000FFF731FC39465046FFF72DFC3146404693
:1059C0003A4601F009F9A4F57A74284640F2EE311E
:1059D000A4B23E44FFF778FBFFF7FCFBB4F57A7FF7
:1059E00088BFA4F57A74A84684BFA7B24FF47A742E
:1059F000314628F8054F4846224698BF002701F057
:105A0000EBF8A11C404689B22644FFF75DFB0FB1BD
:105A10003C46E1E7BDE8F88F10B5074B04469968AE
:105A200042F205000022FFF769FF214642F205001D
:105A3000BDE81040FFF74EBF5893FF1F2DE9F3411B
:105A400002AC1F46FF2304F8013D124B9D688646B9
:105A50000E4605F1090071469046FFF7D3FB31462B
:105A6000FFF7D0FB4146FFF7CDFB29460C2240F261
:105A70000120FFF743FF214640F20120FFF72AFFF4
:105A8000002138460A46FFF72FFF9DF8070002B0B5
:105A9000BDE8F0815893FF1FF7B502AC17464FF0F1
:105AA000FF3244F8042D124A956803460E4605F16C
:105AB00009001946FFF7A6FB3146FFF7A3FB39465D
:105AC000FFF7A0FB0C22294641F20100FFF716FF69
:105AD000214641F20100FFF7FDFE03F061FC019B4E
